{
  "contractName": "KYC",
  "abi": [
    {
      "inputs": [],
      "stateMutability": "nonpayable",
      "type": "constructor"
    },
    {
      "inputs": [],
      "name": "admin",
      "outputs": [
        {
          "internalType": "address",
          "name": "",
          "type": "address"
        }
      ],
      "stateMutability": "view",
      "type": "function",
      "constant": true
    },
    {
      "inputs": [
        {
          "internalType": "address",
          "name": "",
          "type": "address"
        }
      ],
      "name": "userData",
      "outputs": [
        {
          "internalType": "string",
          "name": "name",
          "type": "string"
        },
        {
          "internalType": "string",
          "name": "documentId",
          "type": "string"
        },
        {
          "internalType": "bool",
          "name": "isVerified",
          "type": "bool"
        }
      ],
      "stateMutability": "view",
      "type": "function",
      "constant": true
    },
    {
      "inputs": [
        {
          "internalType": "address",
          "name": "_user",
          "type": "address"
        },
        {
          "internalType": "string",
          "name": "_name",
          "type": "string"
        },
        {
          "internalType": "string",
          "name": "_documentId",
          "type": "string"
        }
      ],
      "name": "addUser",
      "outputs": [],
      "stateMutability": "nonpayable",
      "type": "function"
    },
    {
      "inputs": [
        {
          "internalType": "address",
          "name": "_user",
          "type": "address"
        }
      ],
      "name": "verifyUser",
      "outputs": [],
      "stateMutability": "nonpayable",
      "type": "function"
    },
    {
      "inputs": [
        {
          "internalType": "address",
          "name": "_user",
          "type": "address"
        }
      ],
      "name": "isUserVerified",
      "outputs": [
        {
          "internalType": "bool",
          "name": "",
          "type": "bool"
        }
      ],
      "stateMutability": "view",
      "type": "function",
      "constant": true
    }
  ],
  "bytecode": "0x608060405234801561001057600080fd5b5033600160006101000a81548173ffffffffffffffffffffffffffffffffffffffff021916908373ffffffffffffffffffffffffffffffffffffffff160217905550610c4a806100616000396000f3fe608060405234801561001057600080fd5b50600436106100575760003560e01c80634d8131201461005c578063ace417e014610078578063c8910913146100a8578063d7554a68146100da578063f851a440146100f6575b600080fd5b61007660048036038101906100719190610578565b610114565b005b610092600480360381019061008d9190610578565b610201565b60405161009f91906105c0565b60405180910390f35b6100c260048036038101906100bd9190610578565b610259565b6040516100d19392919061066b565b60405180910390f35b6100f460048036038101906100ef91906107e5565b6103a0565b005b6100fe6104e0565b60405161010b919061087f565b60405180910390f35b600160009054906101000a900473ffffffffffffffffffffffffffffffffffffffff1673ffffffffffffffffffffffffffffffffffffffff163373ffffffffffffffffffffffffffffffffffffffff16146101a4576040517f08c379a000000000000000000000000000000000000000000000000000000000815260040161019b9061090c565b60405180910390fd5b60016000808373ffffffffffffffffffffffffffffffffffffffff1673ffffffffffffffffffffffffffffffffffffffff16815260200190815260200160002060020160006101000a81548160ff02191690831515021790555050565b60008060008373ffffffffffffffffffffffffffffffffffffffff1673ffffffffffffffffffffffffffffffffffffffff16815260200190815260200160002060020160009054906101000a900460ff169050919050565b600060205280600052604060002060009150905080600001805461027c9061095b565b80601f01602080910402602001604051908101604052809291908181526020018280546102a89061095b565b80156102f55780601f106102ca576101008083540402835291602001916102f5565b820191906000526020600020905b8154815290600101906020018083116102d857829003601f168201915b50505050509080600101805461030a9061095b565b80601f01602080910402602001604051908101604052809291908181526020018280546103369061095b565b80156103835780601f1061035857610100808354040283529160200191610383565b820191906000526020600020905b81548152906001019060200180831161036657829003601f168201915b5050505050908060020160009054906101000a900460ff16905083565b600160009054906101000a900473ffffffffffffffffffffffffffffffffffffffff1673ffffffffffffffffffffffffffffffffffffffff163373ffffffffffffffffffffffffffffffffffffffff1614610430576040517f08c379a00000000000000000000000000000000000000000000000000000000081526004016104279061090c565b60405180910390fd5b6040518060600160405280838152602001828152602001600015158152506000808573ffffffffffffffffffffffffffffffffffffffff1673ffffffffffffffffffffffffffffffffffffffff16815260200190815260200160002060008201518160000190816104a19190610b42565b5060208201518160010190816104b79190610b42565b5060408201518160020160006101000a81548160ff021916908315150217905550905050505050565b600160009054906101000a900473ffffffffffffffffffffffffffffffffffffffff1681565b6000604051905090565b600080fd5b600080fd5b600073ffffffffffffffffffffffffffffffffffffffff82169050919050565b60006105458261051a565b9050919050565b6105558161053a565b811461056057600080fd5b50565b6000813590506105728161054c565b92915050565b60006020828403121561058e5761058d610510565b5b600061059c84828501610563565b91505092915050565b60008115159050919050565b6105ba816105a5565b82525050565b60006020820190506105d560008301846105b1565b92915050565b600081519050919050565b600082825260208201905092915050565b60005b838110156106155780820151818401526020810190506105fa565b60008484015250505050565b6000601f19601f8301169050919050565b600061063d826105db565b61064781856105e6565b93506106578185602086016105f7565b61066081610621565b840191505092915050565b600060608201905081810360008301526106858186610632565b905081810360208301526106998185610632565b90506106a860408301846105b1565b949350505050565b600080fd5b600080fd5b7f4e487b7100000000000000000000000000000000000000000000000000000000600052604160045260246000fd5b6106f282610621565b810181811067ffffffffffffffff82111715610711576107106106ba565b5b80604052505050565b6000610724610506565b905061073082826106e9565b919050565b600067ffffffffffffffff8211156107505761074f6106ba565b5b61075982610621565b9050602081019050919050565b82818337600083830152505050565b600061078861078384610735565b61071a565b9050828152602081018484840111156107a4576107a36106b5565b5b6107af848285610766565b509392505050565b600082601f8301126107cc576107cb6106b0565b5b81356107dc848260208601610775565b91505092915050565b6000806000606084860312156107fe576107fd610510565b5b600061080c86828701610563565b935050602084013567ffffffffffffffff81111561082d5761082c610515565b5b610839868287016107b7565b925050604084013567ffffffffffffffff81111561085a57610859610515565b5b610866868287016107b7565b9150509250925092565b6108798161053a565b82525050565b60006020820190506108946000830184610870565b92915050565b7f4f6e6c792061646d696e2063616e20706572666f726d2074686973206163746960008201527f6f6e000000000000000000000000000000000000000000000000000000000000602082015250565b60006108f66022836105e6565b91506109018261089a565b604082019050919050565b60006020820190508181036000830152610925816108e9565b9050919050565b7f4e487b7100000000000000000000000000000000000000000000000000000000600052602260045260246000fd5b6000600282049050600182168061097357607f821691505b6020821081036109865761098561092c565b5b50919050565b60008190508160005260206000209050919050565b60006020601f8301049050919050565b600082821b905092915050565b6000600883026109ee7fffffffffffffffffffffffffffffffffffffffffffffffffffffffffffffffff826109b1565b6109f886836109b1565b95508019841693508086168417925050509392505050565b6000819050919050565b6000819050919050565b6000610a3f610a3a610a3584610a10565b610a1a565b610a10565b9050919050565b6000819050919050565b610a5983610a24565b610a6d610a6582610a46565b8484546109be565b825550505050565b600090565b610a82610a75565b610a8d818484610a50565b505050565b5b81811015610ab157610aa6600082610a7a565b600181019050610a93565b5050565b601f821115610af657610ac78161098c565b610ad0846109a1565b81016020851015610adf578190505b610af3610aeb856109a1565b830182610a92565b50505b505050565b600082821c905092915050565b6000610b1960001984600802610afb565b1980831691505092915050565b6000610b328383610b08565b9150826002028217905092915050565b610b4b826105db565b67ffffffffffffffff811115610b6457610b636106ba565b5b610b6e825461095b565b610b79828285610ab5565b600060209050601f831160018114610bac5760008415610b9a578287015190505b610ba48582610b26565b865550610c0c565b601f198416610bba8661098c565b60005b82811015610be257848901518255600182019150602085019450602081019050610bbd565b86831015610bff5784890151610bfb601f891682610b08565b8355505b6001600288020188555050505b50505050505056fea2646970667358221220fa0c064712ac7b08181731204470cc165c0722e730baad9d02424c5aa9548f5964736f6c63430008130033",
  "immutableReferences": {},
  "source": "//SPDX-License-Identifier: MIT\npragma solidity ^0.8.0;\n\ncontract KYC {\n    struct UserData {\n        string name;\n        string documentId;\n        bool isVerified;\n    }\n\n    mapping(address => UserData) public userData;\n    address public admin;\n\n    constructor() {\n        admin = msg.sender;\n    }\n\n    modifier onlyAdmin() {\n        require(msg.sender == admin, \"Only admin can perform this action\");\n        _;\n    }\n\n    function addUser(address _user, string memory _name, string memory _documentId) public onlyAdmin {\n        userData[_user] = UserData(_name, _documentId, false);\n    }\n\n    function verifyUser(address _user) public onlyAdmin {\n        userData[_user].isVerified = true;\n    }\n\n    function isUserVerified(address _user) public view returns (bool) {\n        return userData[_user].isVerified;\n    }\n}\n",
  "sourcePath": "/Users/macintoshhd/celo-kyc/contracts/KYC.sol",
  "compiler": {
    "name": "solc",
    "version": "0.8.19+commit.7dd6d404.Emscripten.clang"
  },
  "schemaVersion": "3.4.13",
  "updatedAt": "2023-05-16T20:20:50.695Z",
  "networkType": "ethereum",
  "devdoc": {
    "kind": "dev",
    "methods": {},
    "version": 1
  },
  "userdoc": {
    "kind": "user",
    "methods": {},
    "version": 1
  }
}